:03000000020446B1
:03002B0002042E9E
:10002E00C0E0C0D0C000C001C002E4F538F539F51B
:10003E003AF53BF53C7A20E533A2E779047830E6D1
:10004E0033F608D9FA79057838E636D4F608D9F9B0
:10005E00DAE5D002D001D000D0D0D0E022C0E0C08E
:10006E00D0C000C001C002E4F538F539F53AF53BD1
:10007E00F53C7A20E533A2E779047830E633F608CA
:10008E00D9FA79057838C0D0E6243320E70224D097
:10009E0020E30224FDD0D033F608D9EADAD6D00216
:1000AE00D001D000D0D0D0E022C0E0C0D0C000C07F
:1000BE0001C0027A207905C3783CE613C0D030E740
:1000CE000224D030E30224FDF618D0D0D9EC790406
:1000DE007833E613F618D9FADADBD002D001D00065
:1000EE00D0D0D0E022C0E0C0D0E5302534F530E5E8
:1000FE00313535F531E5323536F532E5333537F50F
:10010E0033D0D0D0E022C0E0C0D0C3E5309534F576
:10011E0030E5319535F531E5329536F532E53395E5
:10012E0037F533D0D0D0E022C0E0C0D0C3E5309553
:10013E0034E5319535E5329536E53395379200D075
:10014E00D0D0E022C0E0C0D0C3E5349530E535957F
:10015E0031E5369532E53795339200D0D0D0E02296
:10016E00C0E0C0D0C200C3E53495307014E53595BB
:10017E0031700EE53695327008E53795337002D240
:10018E0000D0D0D0E02212016E20000302015222D4
:10019E0012016E20000302013622C0E0C0F0C0D072
:1001AE00C000C001C002C003E5308534F0A4F8A938
:1001BE00F0E5318534F0A429F9E435F0FAE530851F
:1001CE0035F0A429F9E5F03AFAE433FBE53285344B
:1001DE00F0A42AFAE5F03BFBE5318535F0A42AFAC6
:1001EE00E5F03BFBE5308536F0A42AFAE5F03BFB63
:1001FE00E5338534F0A42BFBE5328535F0A42BFBDB
:10020E00E5318536F0A42BFBE5308537F0A42BFBCA
:10021E008B338A3289318830D003D002D001D0009E
:10022E00D0D0D0F0D0E022C0E0C0D0C000C001C01D
:10023E0002C003C0047C20E4F8F9FAFBC3E53033B6
:10024E00F530E53133F531E53233F532E53333F55B
:10025E0033E833F8E933F9EA33FAEB33FBC3E895C5
:10026E0034E99535EA9536EB95374013E89534F831
:10027E00E99535F9EA9536FAEB9537FB433001DC13
:10028E00BBD004D003D002D001D000D0D0D0E02219
:10029E0085303485313585323685333722E530C5A4
:1002AE0034F530E531C535F531E532C536F532E593
:0602BE0033C537F53322C1
:1002C400C00078B10000D8FCD00022C000C0017981
:1002D400C878C8D8FED9FADAF6D001D00022D2B351
:1002E4001202C4C2B322A2E792B7A2E692B6A2E572
:1002F40092B5A2E492B41202E21202C4A2E392B74B
:10030400A2E292B6A2E192B5A2E092B41202E22273
:10031400D2B20202EAC2B20202EAC2B374331203D4
:10032400197433120319743212031974281203193D
:10033400740C1203197401120319C0027A02120216
:10034400CFD00222E4936006120314A380F6224461
:10035400404480020319C0E0E8C4540F443012033F
:1003640014E8540F4430120314D0E0224361706146
:10037400636974616E636520286E46293A202020E3
:10038400004572726F723A203025202020202020F0
:100394002020004572726F723A20392520202020D7
:1003A40020202020004572726F723A20352E3725A6
:1003B40020202020202020004572726F723A2031C4
:1003C4002E352520202020202020004572726F72B7
:1003D4003A2031302E3935252020202020202000BD
:1003E4004E6F207369676E616C20202020202000EE
:1003F400C000A83C12035AD000C000A83B12035A04
:10040400D000C000A83A12035AD000C000A8391284
:10041400035AD000C000A83812035AD0002275C86D
:100424000075CB0075CA00D2AD22C2CFC0E0053D35
:10043400E53D7002053ED0E03212042212031ED2C2
:10044400AF2275817F12043DD280C0E07401141282
:100454000355D0E0C083C082C0E09003701203480B
:10046400D0E0D082D083C2CA75CC0075CD00753D72
:1004740000753E00C2CFD2CAE53E54FE70342080DF
:10048400F7E53E54FE702B3080F7C2CA75CC007578
:10049400CD00753D00753E00C2CFD2CAE53E54FE84
:1004A40070102080F7E53E54FE70073080F7C2CA12
:1004B400801FC0E0740114120353D0E0C083C082D3
:1004C400C0E09003E4120348D0E0D082D083020459
:1004D4006AE5CC45CD453D453E60D785CC3085CDDC
:1004E40031853D32853E3375342D753500753600C2
:1004F4007537001201A875346475350075360075BA
:10050400370012023575349075350075360075372D
:10051400001201A87534647535007536007537000E
:100524001202357534FC75350375360075370012C3
:10053400023575346475350075360075370012015F
:10054400A87534C875350075360075370012013644
:100554002000547534107535277536007537001230
:1005640001362000367534A0753586753601753729
:10057400001201362000277534807535A9753603BD
:1005840075370012013620001875344075354275F0
:10059400360F75370012013620000902062E0206B6
:1005A400B10207340207D2C0E0740114120355D01B
:1005B400E0C083C082C0E0900370120348D0E0D052
:1005C40082D083C0E0740114120353D0E012002ED1
:1005D4001203F4C200C0027A321202CFD002C00267
:1005E4007A321202CFD002C0027A321202CFD00283
:1005F400C0E0740114120355D0E0C083C082C0E08F
:10060400900385120348D0E0D082D083C0027A32AE
:100614001202CFD002C0027A321202CFD002C0023C
:100624007A321202CFD00202046AC0E074011412BA
:100634000355D0E0C083C082C0E090037012034829
:10064400D0E0D082D083C0E0740114120353D0E010
:1006540012002E1203F4C200C0027A321202CFD06A
:1006640002C0027A321202CFD002C0027A321202DF
:10067400CFD002C0E0740114120355D0E0C083C08F
:1006840082C0E0900397120348D0E0D082D083C0A8
:10069400027A321202CFD002C0027A321202CFD0D2
:1006A40002C0027A321202CFD00202046AC0E0749D
:1006B4000114120355D0E0C083C082C0E0900370DF
:1006C400120348D0E0D082D083C0E0740114120336
:1006D40053D0E012002E1203F4C200C0027A321288
:1006E40002CFD002C0027A321202CFD002C0027A04
:1006F400321202CFD002C0E0740114120355D0E0CC
:10070400C083C082C0E09003A9120348D0E0D08225
:10071400D083C0027A321202CFD002C0027A3212DF
:1007240002CFD002C0027A321202CFD00202046A8F
:10073400C0E0740114120355D0E0C083C082C0E04D
:10074400900370120348D0E0D082D083C0E07401DB
:1007540014120353D0E012002E1203F4C200C0029C
:100764007A321202CFD002C0027A321202CFD00201
:10077400C0027A321202CFD002C0027A321202CF01
:10078400D002C0027A321202CFD002C0027A3212F0
:1007940002CFD002C0E0740114120355D0E0C0832C
:1007A400C082C0E09003BC120348D0E0D082D08362
:1007B400C0027A321202CFD002C0027A321202CFC1
:1007C400D002C0027A321202CFD00202046AC0E020
:1007D400740114120355D0E0C083C082C0E09003BA
:1007E40070120348D0E0D082D083C0E074011412A8
:1007F4000353D0E012002E1203F4C200C0027A3276
:100804001202CFD002C0027A321202CFD002C0024A
:100814007A321202CFD002C0E0740114120355D010
:10082400E0C083C082C0E09003CF120348D0E0D080
:1008340082D083C0027A321202CFD002C0027A324E
:100844001202CFD002C0027A321202CFD0020204C6
:010854006A39
:00000001FF
